:100000000C9464000C948C000C948C000C943C07B1
:100010000C943C070C943C070C948C000C948C00C2
:100020000C948C000C948C000C948C000C948C0020
:100030000C948C000C948C000C948C000C948C0010
:100040000C9497030C948C000C943B050C941505B0
:100050000C948C000C948C000C948C000C948C00F0
:100060000C948C000C948C000000000024002700ED
:100070002A000000000023002600290000000000E4
:10008000250028002B0004040404040404040202D4
:100090000202020203030303030301020408102007
:1000A0004080010204081020010204081020000012
:1000B0000008000201000003040700000000000027
:1000C0000000F90A5D0B060B11241FBECFEFD8E02C
:1000D000DEBFCDBF12E0A0E0B1E0EAE6FDE102C084
:1000E00005900D92A235B107D9F723E0A2E5B2E061
:1000F00001C01D92AF35B207E1F710E0C3E6D0E0D2
:1001000004C02197FE010E948A0BC136D107C9F7AE
:100110000E94130B0C94A80E0C94000090E0FC01BC
:10012000E255FF4F2491FC01E656FF4F3491FC014C
:10013000EA57FF4FE491EE2309F43CC0222339F142
:10014000233091F038F42130A9F0223001F584B544
:100150008F7D12C0273091F02830A1F02430B9F4FF
:10016000809180008F7D03C0809180008F77809385
:1001700080000DC084B58F7784BD09C08091B00028
:100180008F7703C08091B0008F7D8093B000F0E046
:10019000EE0FFF1FE458FF4FA591B4919FB7F8945D
:1001A000611104C08C913095382302C0EC913E2B34
:1001B0003C939FBF08953FB7F89480913803909186
:1001C0003903A0913A03B0913B0326B5A89B05C023
:1001D0002F3F19F00196A11DB11D3FBFBA2FA92FC6
:1001E000982F8827820F911DA11DB11DBC01CD0143
:1001F00042E0660F771F881F991F4A95D1F708952F
:10020000CF92DF92EF92FF920F931F93CF93DF93E2
:100210006C017A018B01C0E0D0E0CE15DF0581F0E2
:10022000D8016D918D01D601ED91FC910190F08185
:10023000E02DC6010995892B11F02196EECF7E01A4
:10024000C701DF91CF911F910F91FF90EF90DF9049
:10025000CF900895FC01538D448D252F30E0842FDD
:1002600090E0821B930B541710F0CF9608950197DE
:100270000895FC01918D828D981761F0828DDF01C8
:10028000A80FB11D5D968C91928D9F5F9F73928F89
:1002900090E008958FEF9FEF0895FC01918D828D7E
:1002A000981731F0828DE80FF11D858D90E008954B
:1002B0008FEF9FEF0895FC01918D228D892F90E0A3
:1002C000805C9F4F821B91098F739927089582E567
:1002D00092E00E945B0121E0892B09F420E0822F4B
:1002E0000895FC01848DDF01A80FB11DA35ABF4FF3
:1002F0002C91848D90E001968F739927848FA68925
:10030000B7892C93A089B1898C91837080648C9378
:10031000938D848D981306C00288F389E02D808127
:100320008F7D80830895EF92FF920F931F93CF9359
:10033000DF93EC0181E0888F9B8D8C8D981305C035
:10034000E889F989808185FD26C0F62E0B8D10E0A5
:100350000F5F1F4F0F731127E02E8C8DE8120CC01A
:100360000FB607FCFACFE889F989808185FFF5CFC0
:10037000CE010E947101F1CF8B8DFE01E80FF11DBE
:10038000E35AFF4FF0829FB7F8940B8FEA89FB89FD
:10039000808180620AC09FB7F894EE89FF896083EC
:1003A000E889F98980818370806480839FBF81E0C0
:1003B00090E0DF91CF911F910F91FF90EF90089502
:1003C000CF93DF93EC01888D8823C9F0EA89FB89FC
:1003D000808185FD05C0A889B9898C9186FD0FC0F3
:1003E0000FB607FCF5CF808185FFF2CFA889B989C8
:1003F0008C9185FFEDCFCE010E947101E7CFDF9197
:10040000CF91089580E090E0892B29F00E94670148
:1004100081110C9400000895209131033091320332
:100420002817390771F49091300380912F039817A2
:1004300041F0E0913003F0E0E151FD4F808190E028
:1004400008958FEF9FEF089508951F93CF93DF9343
:10045000DC015C968D919C915D97009739F421E0C9
:1004600030E013963C932E9312973BC05196ED913A
:10047000FC91529750962C915097322F30951FB780
:100480005E964C915E97742F727041FD6095F89462
:100490004081772311F0422B01C043234083EC01BC
:1004A0002197F1F748E0508160FF02C0522B01C054
:1004B00053235083EC012197F1F76695415099F74A
:1004C0008081772319F08323808302C0282B208327
:1004D0001FBF5C968D919C915D970197F1F781E02C
:1004E00090E0DF91CF911F910895209131033091D9
:1004F00032032817390771F480912F0320913003BC
:1005000090E0805C9F4F821B910960E470E00E9444
:10051000290C089580E090E00895209131033091F6
:10052000320328173907B9F49091300380912F03D3
:10053000981789F0E0913003F0E0E151FD4F8081A0
:100540002091300330E02F5F3F4F2F7333272093EC
:10055000300390E008958FEF9FEF0895089580E0B5
:1005600090E008956115710579F0FB01019000207C
:10057000E9F73197AF01461B570BDC01ED91FC9178
:100580000280F381E02D099480E090E008950E94BC
:10059000790E0F931F93CF93DF93EC01888199819C
:1005A000009729F02A813B812617370788F48B01B1
:1005B0006F5F7F4F0E94B30D009761F0998388832E
:1005C0001B830A832C813D81232B11F4FC011082B3
:1005D00081E001C080E0DF91CF911F910F910895DC
:1005E000EF92FF920F931F93CF93DF9361157105E5
:1005F00011F480E01CC041155105C1F07B01EC01F4
:100600008C819D818A01080F191FB801CE010E94BB
:10061000C902882371F3288139818C819D81B701BA
:10062000820F931F0E94870E1D830C8381E0DF9150
:10063000CF911F910F91FF90EF900895CF93DF938B
:10064000EC0188819981009711F00E942A0D19828E
:1006500018821D821C821B821A82DF91CF9108951D
:10066000EF92FF920F931F93CF93DF93EC017B01E7
:100670008A01BA010E94C902811104C0CE010E9400
:100680001E0307C01D830C83B701888199810E94D6
:10069000870ECE01DF91CF911F910F91FF90EF90C8
:1006A00008958F929F92AF92BF92CF92DF92EF9276
:1006B000FF926B017C010E94DB004B015C01C114C5
:1006C000D104E104F104F1F00E94DB00DC01CB0174
:1006D00088199909AA09BB09883E9340A105B1056B
:1006E00070F321E0C21AD108E108F10888EE880E03
:1006F00083E0981EA11CB11CC114D104E104F104D3
:1007000019F7DDCFFF90EF90DF90CF90BF90AF90C3
:100710009F908F9008952FB7F89460913403709153
:10072000350380913603909137032FBF08951F92B0
:100730000F920FB60F9211242F933F938F939F9395
:10074000AF93BF938091340390913503A09136030A
:10075000B09137033091330323E0230F2D3720F47A
:100760000196A11DB11D05C026E8230F0296A11D0B
:10077000B11D209333038093340390933503A093EA
:100780003603B09337038091380390913903A091D9
:100790003A03B0913B030196A11DB11D809338032C
:1007A00090933903A0933A03B0933B03BF91AF9169
:1007B0009F918F913F912F910F900FBE0F901F909F
:1007C0001895CF93DF93FC0124813581232B71F0A1
:1007D000FB01DC01CD91DC9160817181CE010E9431
:1007E0008E0E009719F08C1B9D0B02C08FEF9FEFB0
:1007F000DF91CF910895CF93DF93EC0161157105DF
:1008000061F0FB0101900020E9F73197AF01461B31
:10081000570B0E94F002811103C0CE010E941E03FB
:10082000CE01DF91CF910895CF93DF93EC01FB01CF
:1008300044815581608171810E94F002811103C061
:10084000CE010E941E03CE01DF91CF910895CF9378
:10085000DF9300D0CDB7DEB769831A8241E050E064
:10086000BE016F5F7F4F0E94F0020F900F90DF91EB
:10087000CF910895CF93DF93EC01FB018617970783
:1008800061F0608171816115710529F044815581A4
:100890000E94300302C00E941E03CE01DF91CF915F
:1008A0000895FC01808191810C942A0DEF92FF92B2
:1008B0000F931F93CF93DF93CDB7DEB7A1970FB6FA
:1008C000F894DEBF0FBECDBF8C01CB01BA01F80199
:1008D00011821082138212821582148230E0AE01DE
:1008E0004F5F5F4F7A010E94900BF701019000204B
:1008F000E9F73197AF014E195F09B701C8010E94AE
:100900003003A1960FB6F894DEBF0FBECDBFDF91C6
:10091000CF911F910F91FF90EF900895EF92FF926A
:100920000F931F93CF93DF93CDB7DEB761970FB6C9
:10093000F894DEBF0FBECDBF8C01CB01F801118250
:100940001082138212821582148250E09E012F5F62
:100950003F4F7901B9010E94BD0BF70101900020C2
:10096000E9F73197AF014E195F09B701C8010E943D
:10097000300361960FB6F894DEBF0FBECDBFDF9196
:10098000CF911F910F91FF90EF900895FC0111827C
:10099000108213821282158214820C943A04FC0194
:1009A00011821082138212821582148261157105E0
:1009B00051F0FB0101900020E9F73197AF01461B90
:1009C000570B0C94300308950F931F93CF93DF932D
:1009D000EC010E94B2028C016EE472E0CE010E9432
:1009E000B202800F911FDF91CF911F910F91089557
:1009F0000F931F93CF93DF93EC01FB01448155814B
:100A000060817181E881F9810280F381E02D09958F
:100A10008C016EE472E0CE010E94B202800F911F41
:100A2000DF91CF911F910F9108951F920F920FB6F2
:100A30000F9211242F933F934F935F936F937F9364
:100A40008F939F93AF93BF93EF93FF9382E592E0D1
:100A50000E947101FF91EF91BF91AF919F918F9192
:100A60007F916F915F914F913F912F910F900FBEAA
:100A70000F901F9018951F920F920FB60F9211248E
:100A80002F938F939F93EF93FF93E0916202F091E6
:100A900063028081E0916802F091690282FD12C0D8
:100AA000908180916B028F5F8F7320916C0282170F
:100AB00051F0E0916B02F0E0EE5AFD4F958F80937C
:100AC0006B0201C08081FF91EF919F918F912F91D7
:100AD0000F900FBE0F901F901895CF92DF92EF925C
:100AE000FF921F93CF93DF93EC016A017B01122FDA
:100AF000E889F98982E080834115514E61057105CD
:100B0000B1F060E079E08DE390E0A70196010E94EA
:100B10003D0CDA01C9010197A109B109B695A79564
:100B2000979587959C01211580E13807A8F0E88901
:100B3000F989108260E874E88EE190E0A7019601DF
:100B40000E943D0CDA01C9010197A109B109B695CE
:100B5000A795979587959C01EC85FD853083EE855B
:100B6000FF852083188EEC89FD891083EA89FB8933
:100B7000808180618083EA89FB89808188608083AD
:100B8000EA89FB89808180688083EA89FB8980818A
:100B90008F7D8083DF91CF911F91FF90EF90DF9049
:100BA000CF900895CF93DF93EC019A01AB011B8E98
:100BB0001A8E198E188E1F8A1E8A60E079E08DE3E6
:100BC00090E00E945F0CF9012430310518F0C90152
:100BD000039702C081E090E09D8F8C8F6C85663119
:100BE00008F069C0C901969587958431910510F088
:100BF000439702C081E090E09F8B8E8B369718F070
:100C0000C901059702C081E090E0998F888FC901E2
:100C1000880F991F280F391F3695279536952795E8
:100C20002D30310518F02C50310902C021E030E0A0
:100C30003B8F2A8F90916800683050F021E06E3031
:100C400008F420E081E001C0880F2A95EAF701C08E
:100C500084E0892B809368009C85983038F09E3022
:100C600040F0963148F020E030E008C02DE630E05A
:100C700005C02BE630E002C02CE630E03C8B2B8B2D
:100C8000983030F481E001C0880F9A95EAF70EC0E1
:100C9000292F30E09E3018F42850310902C02E5020
:100CA000310981E001C0880F2A95EAF78D8B8C8D80
:100CB0009D8D0197F1F78A8D9B8D892B09F1E0912C
:100CC0003103F0913203CE17DF07D1F0309739F0BE
:100CD000A389B4899C918589809589238C938E8D75
:100CE0008E7F8E8F10922F0310923003D093320399
:100CF000C0933103EB89FC8990818D89892B808396
:100D0000DF91CF910895FC018EE292E09183808380
:100D10008091310390913203E817F90759F4A389C0
:100D2000B4899C918589809589238C931092320394
:100D3000109231030895CF92DF92FF920F931F9389
:100D4000CF93DF93EC01F62E142F1B821A8288EECC
:100D500093E0A0E0B0E08C839D83AE83BF838EE2FE
:100D600092E0998388831F8A1E8A198E188E1B8EA3
:100D70001A8E1D8E1C8E6E8D6E7F20FB61F96E8F1C
:100D80006695617081E06827842F0E948E00412F54
:100D900050E09A0126563F4FF90164914A575F4F40
:100DA000FA018491882399F090E0880F991FFC0143
:100DB000E859FF4FA591B491FC01E458FF4F85918C
:100DC00094919FB7F8948C91862B8C939FBFF901D7
:100DD0002491288BFA014491E42FF0E0EE0FFF1FDD
:100DE000E458FF4F859194919A8B898B0F2D10E0D9
:100DF000C80186569F4F6C01FC0124910A571F4F72
:100E0000F80184918823C9F090E0880F991FFC01B4
:100E1000E859FF4FA591B491FC01E458FF4F45916B
:100E200054913FB7F8949C91822F809598239C937E
:100E3000FA019081892380833FBF8E8D81FD04C09C
:100E400061E08F2D0E948E00FC86F601C490CD8655
:100E5000F8010491E02FF0E0EE0FFF1FEE58FF4F76
:100E6000859194919F878E87DF91CF911F910F91EC
:100E7000FF90DF90CF9008951F920F920FB60F92C0
:100E800011242F933F934F935F936F937F938F938F
:100E90009F93AF93BF93EF93FF93E0913103F09152
:100EA0003203309709F451C0968DA685B7858585A4
:100EB00091FF04C09C91892329F447C09C91892308
:100EC00009F043C0A389B4899C91858980958923C1
:100ED0008C93868997890197F1F7608D718DA6852E
:100EE000B785558538E020E0CB010197F1F7822FD7
:100EF00090E095958795282F4C91452309F020681F
:100F0000315091F7868D81FD209580912F0390E0DF
:100F100001968F73992730913003381749F0A091CB
:100F20002F03B0E0A151BD4F2C9380932F0303C03A
:100F3000868D8160868F828D938D0197F1F7A389CD
:100F4000B4899C918589892B8C93FF91EF91BF91F6
:100F5000AF919F918F917F916F915F914F913F9151
:100F60002F910F900FBE0F901F901895CF93DF9386
:100F700000D0CDB7DEB79A83898389819A81FC013D
:100F8000848195810F900F90DF91CF910895CF9339
:100F9000DF9300D01F92CDB7DEB79A8389836B832E
:100FA00089819A816B810E94270489819A810F909F
:100FB0000F900F90DF91CF910895CF93DF9300D0E2
:100FC00000D0CDB7DEB79A8389837C836B83898118
:100FD0009A812B813C81B9010E94CF0400000F90BF
:100FE0000F900F900F90DF91CF910895CF93DF93E3
:100FF00000D000D000D0CDB7DEB79A8389834B8371
:101000005C836D837E838B819C81AD81BE81E98110
:10101000FA8126E0AC01BD01CF010E946D05000000
:1010200026960FB6F894DEBF0FBECDBFDF91CF91ED
:1010300008951F93CF93DF93CDB7DEB72D970FB6EB
:10104000F894DEBF0FBECDBF9D878C870E948B03B7
:10105000DC01CB01805F984DAF4FBF4F89839A83EE
:10106000AB83BC83CE01069666E071E00E94CF049C
:101070000E948B039B01AC0161E089819A81AB8165
:10108000BC8182179307A407B50708F460E06623C4
:1010900059F18CE393E00E94750221E0892B09F459
:1010A00020E0222329F38CE393E00E948D028D83BC
:1010B000CE0106966D810E94C7072C853D85CE0125
:1010C0000696B9010E94E10321E0181619060CF0FA
:1010D00020E0222369F2CE010696BC0182E592E06F
:1010E0000E94F80411E008C0CE010696BC0182E51A
:1010F00092E00E94F80410E0CE0106960E9451048E
:10110000812F2D960FB6F894DEBF0FBECDBFDF91B5
:10111000CF911F9108951F93CF93DF93CDB7DEB783
:101120002A970FB6F894DEBF0FBECDBF98878F8386
:101130007A8769878F819885BC018CE393E00E9450
:10114000F80489859A85BC01CE0101960E94C604E7
:10115000CE0101960E941908982F81E0192F1827B7
:10116000CE0101960E945104112341F067E071E025
:1011700082E592E00E94E40480E001C081E02A96CA
:101180000FB6F894DEBF0FBECDBFDF91CF911F9198
:1011900008951F93CF93DF93CDB7DEB7C854D1091D
:1011A0000FB6F894DEBF0FBECDBF40E855E260E059
:1011B00070E082E592E00E94F60740E855E260E0C8
:1011C00070E08CE393E00E94D20568EE73E080E06B
:1011D00090E00E945103CE018D5B9F4F6CE071E067
:1011E0000E94CF04CE01CD966FE071E00E94CF0443
:1011F0009E012D5B3F4FCE01CD96B9010E948B0819
:10120000CE01CD960E945104CE018D5B9F4F0E946E
:10121000510464EF71E080E090E00E945103CE0140
:10122000C7966CE071E00E94CF04CE01C19662E1E6
:1012300071E00E94CF049E01295C3F4FCE01C19610
:10124000B9010E948B08CE01C1960E945104CE01C3
:10125000C7960E945104CE018B9662E271E00E9413
:10126000CF04CE01859668E271E00E94CF049E0112
:10127000255D3F4FCE018596B9010E948B08182F3E
:10128000CE0185960E945104CE018B960E94510496
:10129000112311F1CE014F966CE071E00E94CF0452
:1012A000CE01499662E371E00E94CF049E01215E67
:1012B0003F4FCE014996B9010E948B08CE01499655
:1012C0000E945104CE014F960E94510468E873E1D8
:1012D00080E090E00E945103CE0143966CE071E003
:1012E0000E94CF04CE010D9666E571E00E94CF0406
:1012F0009E012D5E3F4FCE010D96B9010E948B08D5
:10130000CE010D960E945104CE0143960E945104D5
:10131000CE0107966CE071E00E94CF0462E671E0B6
:10132000CE0101960E94CF04CE010796BC01CE01EA
:1013300001960E948B08CE0101960E945104CE01B5
:1013400007960E9451040000C85BDF4F0FB6F89467
:10135000DEBF0FBECDBFDF91CF911F910895CF9318
:10136000DF9300D0CDB7DEB79A83898389819A81D4
:101370000E94510400000F900F90DF91CF910895CB
:101380001F93CF93DF93CDB7DEB7C455D1090FB606
:10139000F894DEBF0FBECDBFCE01875B9F4F66E0E6
:1013A00071E00E94CF04CE01815B9F4F66E071E047
:1013B0000E94CF040E948B03AB01BC01CE018D5B68
:1013C0009F4F2AE00E945604CE01CD9661EB71E05A
:1013D0000E94DD079E012D5B3F4FCE01CD96B901E6
:1013E0000E94140463ED71E00E94FB039C01CE0196
:1013F000875B9F4FB9010E943A04CE01CD960E94AF
:10140000AF09CE018D5B9F4F0E945104CE01875BD7
:101410009F4F0E94B6079C012E5F3F4FCE01C7969B
:101420004AE0B9010E948E04CE01C19667E172E0E4
:101430000E94DD079E01295C3F4FCE01C196B90194
:101440000E9414049C01CE01815B9F4FB9010E9450
:101450003A04CE01C1960E94AF09CE01C7960E9400
:101460005104CE018B966CE071E00E94CF049E0186
:10147000215B3F4FCE018596B9010E94C6049E01B3
:10148000255D3F4FCE018596B9010E948B08982FAC
:1014900081E0192F1827CE0185960E945104CE01B4
:1014A0008B960E9451041123E1F0CE014F966CE01F
:1014B00071E00E94CF04CE01499662E671E00E947D
:1014C000CF049E01215E3F4FCE014996B9010E9493
:1014D0008B08CE0149960E945104CE014F960E947E
:1014E0005104CE01439663E272E00E94CF049E0154
:1014F000275B3F4FCE010D96B9010E94C6049E01A5
:101500002D5E3F4FCE010D96B9010E948B08982F9A
:1015100081E0192F1827CE010D960E945104CE01AB
:1015200043960E9451041123D9F0CE0107966CE036
:1015300071E00E94CF0462E671E0CE0101960E9444
:10154000CF04CE010796BC01CE0101960E948B0804
:10155000CE0101960E945104CE0107960E945104CB
:1015600068E873E180E090E00E945103CE01815B66
:101570009F4F0E945104CE01875B9F4F0E945104F0
:101580000000CC5ADF4F0FB6F894DEBF0FBECDBFC0
:10159000DF91CF911F910895CF93DF9300D000D0BA
:1015A000CDB7DEB79A8389837C836B8389819A81E7
:1015B000019759F48B819C81019639F420E04AE02F
:1015C0006BE08CE393E00E949B0689819A81892BD2
:1015D00041F48B819C81019621F48CE393E00E947D
:1015E000830600000F900F900F900F90DF91CF9126
:1015F0000895CF93DF93CDB7DEB76FEF7FEF81E034
:1016000090E00E94CC0ADF91CF910895CF93DF93B1
:10161000CDB7DEB76FEF7FEF80E090E00E94CC0A9D
:10162000DF91CF910895789484B5826084BD84B5AC
:10163000816084BD85B5826085BD85B5816085BDCD
:1016400080916E00816080936E0010928100809185
:10165000810082608093810080918100816080930D
:101660008100809180008160809380008091B10032
:1016700084608093B1008091B00081608093B0005D
:1016800080917A00846080937A0080917A008260F1
:1016900080937A0080917A00816080937A008091B3
:1016A0007A00806880937A001092C1000E94C90875
:1016B0000E94C0090E940202FBCFE2E5F2E0138221
:1016C000128288EE93E0A0E0B0E084839583A68345
:1016D000B78380E492E09183808385EC90E09587E6
:1016E000848784EC90E09787868780EC90E0918BEC
:1016F000808B81EC90E0938B828B82EC90E0958BD9
:10170000848B86EC90E0978B868B118E128E138ED5
:10171000148E0895EE0FFF1F0590F491E02D0994AB
:101720002532310520F4223010F00C949B0BFA0185
:101730001082CA010895BB27FA01A62F621771050E
:1017400081059105330B30FB66F0AA27660F771FE2
:10175000881F991FAA1FA21710F0A21B639538506B
:10176000A9F7A05DAA3308F0A95DA19336F7B111DE
:10177000B1931082CA010C94E20B4532510520F45A
:10178000423010F00C94C80BFB011082CB0108957D
:10179000BB27FB015527AA27880F991FAA1FA4174B
:1017A00010F0A41B83955051B9F7A05DAA3308F03F
:1017B000A95DA193009779F7B111B1931192CB0173
:1017C0000C94E20BDC01FC01672F71917723E1F7A8
:1017D000329704C07C916D9370836291AE17BF07FE
:1017E000C8F308952F923F924F925F926F927F922B
:1017F0008F929F92AF92BF92CF92DF92EF92FF9221
:101800000F931F93CF93DF93CDB7DEB7CA1BDB0BCC
:101810000FB6F894DEBF0FBECDBF09942A88398871
:1018200048885F846E847D848C849B84AA84B98478
:10183000C884DF80EE80FD800C811B81AA81B98184
:10184000CE0FD11D0FB6F894DEBF0FBECDBFED0198
:10185000089597FB072E16F4009407D077FD09D062
:101860000E947E0C07FC05D03EF4909581959F4F19
:101870000895709561957F4F0895A1E21A2EAA1BD5
:10188000BB1BFD010DC0AA1FBB1FEE1FFF1FA21730
:10189000B307E407F50720F0A21BB30BE40BF50B2D
:1018A000661F771F881F991F1A9469F760957095B6
:1018B000809590959B01AC01BD01CF010895052E47
:1018C00097FB1EF400940E94760C57FD07D00E94EF
:1018D0003D0C07FC03D04EF40C94760C50954095CB
:1018E000309521953F4F4F4F5F4F089590958095CC
:1018F000709561957F4F8F4F9F4F0895AA1BBB1B1B
:1019000051E107C0AA1FBB1FA617B70710F0A61BFF
:10191000B70B881F991F5A95A9F780959095BC0120
:10192000CD0108950F931F93CF93DF9382309105DC
:1019300010F482E090E0E0915D03F0915E0320E01E
:1019400030E0A0E0B0E0309719F140815181028190
:10195000138148175907C8F08417950769F4109741
:1019600031F012960C93129713961C9327C0009394
:101970005D0310935E0322C02115310519F0421753
:10198000530718F49A01BD01EF01DF01F801DBCF25
:1019900021153105F9F0281B390B2430310580F46D
:1019A0008A819B816115710521F0FB0193838283FC
:1019B00004C090935E0380935D03FE01329644C0A1
:1019C000FE01E20FF31F8193919322503109398375
:1019D00028833AC020915B0330915C03232B41F4B0
:1019E000209102013091030130935C0320935B034B
:1019F00020910001309101012115310541F42DB7ED
:101A00003EB74091040150910501241B350BE09134
:101A10005B03F0915C03E217F307A0F42E1B3F0B6E
:101A20002817390778F0AC014E5F5F4F2417350750
:101A300048F04E0F5F1F50935C0340935B0381930C
:101A4000919302C0E0E0F0E0CF01DF91CF911F91D0
:101A50000F910895CF93DF93009709F481C0FC01A3
:101A6000329713821282A0915D03B0915E031097AA
:101A700081F420813181820F931F20915B0330918B
:101A80005C032817390751F5F0935C03E0935B037F
:101A900067C0ED0120E030E0CE17DF0740F44A8157
:101AA0005B819E0141155105F1F0EA01F5CFD38329
:101AB000C28340815181840F951FC817D90759F4FB
:101AC00088819981840F951F0296918380838A81F2
:101AD0009B81938382832115310529F4F0935E0362
:101AE000E0935D033DC0E901FB83EA83499159918D
:101AF000C40FD51FEC17FD0761F480819181840F1D
:101B0000951F0296E90199838883828193819B8343
:101B10008A83E0E0F0E012968D919C9113970097F4
:101B200019F0FD01DC01F7CF8D919C9111979D017A
:101B30002E5F3F4F820F931F20915B0330915C0318
:101B40002817390769F4309729F410925E03109230
:101B50005D0302C013821282B0935C03A0935B0307
:101B6000DF91CF910895A0E0B0E0E9EBFDE00C94A7
:101B7000F60BEC01009721F4CB010E94920CB4C04B
:101B8000FC01E60FF71F9C0122503109E217F30711
:101B900008F4A8C0D9010D911C91119706171707D9
:101BA000B0F00530110508F49BC0C80104978617F2
:101BB000970708F495C002501109061B170B0193F3
:101BC00011936D937C93CF010E942A0D89C05B0114
:101BD000A01AB10A4C01800E911EA0915D03B09134
:101BE0005E03612C712CE12CF12C109709F446C096
:101BF0008D919C911197A815B905B1F56C0142E042
:101C0000C40ED11CCA14DB0478F14C018A189B085D
:101C1000640142E0C40ED11C1296BC901297139638
:101C2000AC91B5E0CB16D10440F0B282A38391828F
:101C30008082D9016D937C9309C00E5F1F4F800F86
:101C4000911FF90191838083EB2DFA2FE114F104A8
:101C500031F0D7011396FC93EE93129741C0F093A5
:101C60005E03E0935D033CC06816790608F43C010E
:101C70007D0112960D90BC91A02DB7CF80915B0392
:101C800090915C0388169906E1F466167706C8F40D
:101C90008091000190910101009741F48DB79EB7AA
:101CA0004091040150910501841B950BE817F90739
:101CB000C8F4F0935C03E0935B03F90171836083E4
:101CC0000FC0CB010E94920C7C01009759F0A80133
:101CD000BE010E947E0ECE010E942A0DC70104C0E3
:101CE000CE0102C080E090E0CDB7DEB7EEE00C940C
:101CF000120C81E090E0F8940C94A80EFB01DC013A
:101D000002C001900D9241505040D8F70895FB0158
:101D1000DC0101900D920020E1F70895FB01519143
:101D20005523A9F0BF01DC014D9145174111E1F7A1
:101D300059F4CD010190002049F04D914015411119
:101D4000C9F3FB014111EFCF81E090E001970895C5
:101D500010E0C3E6D0E004C0FE010E948A0B219689
:0A1D6000C436D107C9F7F894FFCF8D
:101D6A0000005F038000004661696C004F4B004130
:101D7A00540041542B43574D4F44455F4355523D00
:101D8A0031004E6F2041500041542B43574A415075
:101D9A003F0041542B43574A41505F4355523D221D
:101DAA00437573746F6D696365222C22416E616E8F
:101DBA0064403231220041542B4349504D55583D1D
:101DCA00300041542B43495053544152543D2254FC
:101DDA004350222C22687474703A2F2F75732D6326
:101DEA00656E7472616C312D766F6C7461676562B1
:101DFA006173652D65646365312E636C6F75646606
:101E0A00756E6374696F6E732E6E6574222C38302A
:101E1A0000474554202F6164643F69643D31323381
:101E2A0026766F6C746167653D332E332674696D4F
:101E3A00653D0020485454502F312E310D0A484F29
:101E4A0053543A2075732D63656E7472616C312D2B
:101E5A00766F6C74616765626173652D656463652D
:101E6A00312E636C6F756466756E6374696F6E7319
:101E7A002E6E65740D0A0041542B43495053454E4A
:101E8A00443D00323030204F4B0000000000250254
:101E9A000001AF02240275028D020C02000000004C
:101EAA00930100012A01E0015B0139014D010D0A8C
:021EBA00000026
:107E0000112484B714BE81FFF0D085E080938100F7
:107E100082E08093C00088E18093C10086E0809377
:107E2000C20080E18093C4008EE0C9D0259A86E02C
:107E300020E33CEF91E0309385002093840096BBD3
:107E4000B09BFECF1D9AA8958150A9F7CC24DD24C4
:107E500088248394B5E0AB2EA1E19A2EF3E0BF2EE7
:107E6000A2D0813461F49FD0082FAFD0023811F036
:107E7000013811F484E001C083E08DD089C08234E0
:107E800011F484E103C0853419F485E0A6D080C0E4
:107E9000853579F488D0E82EFF2485D0082F10E0AE
:107EA000102F00270E291F29000F111F8ED06801E7
:107EB0006FC0863521F484E090D080E0DECF843638
:107EC00009F040C070D06FD0082F6DD080E0C81688
:107ED00080E7D80618F4F601B7BEE895C0E0D1E017
:107EE00062D089930C17E1F7F0E0CF16F0E7DF06D8
:107EF00018F0F601B7BEE89568D007B600FCFDCFD4
:107F0000A601A0E0B1E02C9130E011968C91119780
:107F100090E0982F8827822B932B1296FA010C0160
:107F200087BEE89511244E5F5F4FF1E0A038BF0790
:107F300051F7F601A7BEE89507B600FCFDCF97BE46
:107F4000E89526C08437B1F42ED02DD0F82E2BD052
:107F50003CD0F601EF2C8F010F5F1F4F84911BD097
:107F6000EA94F801C1F70894C11CD11CFA94CF0C13
:107F7000D11C0EC0853739F428D08EE10CD085E9AC
:107F80000AD08FE07ACF813511F488E018D01DD067
:107F900080E101D065CF982F8091C00085FFFCCF94
:107FA0009093C60008958091C00087FFFCCF809118
:107FB000C00084FD01C0A8958091C6000895E0E648
:107FC000F0E098E1908380830895EDDF803219F02E
:107FD00088E0F5DFFFCF84E1DECF1F93182FE3DFCA
:107FE0001150E9F7F2DF1F91089580E0E8DFEE27F6
:047FF000FF270994CA
:027FFE00040479
:0400000300007E007B
:00000001FF
